트랜잭션 1: {"blockHash":"0x56c42bb620fb9f00684331e83158797d11c94f7b56a34966b3cbcfef845f72ac","blockNumber":"165","cumulativeGasUsed":"21000","from":"0x627306090abab3a6e1400e9345bc60c78a8bef57","gasUsed":"21000","effectiveGasPrice":"0","logs":[],"logsBloom":"0x00000000000000000000000000000000000000000000000000000000000000000000000000000000000000000000000000000000000000000000000000000000000000000000000000000000000000000000000000000000000000000000000000000000000000000000000000000000000000000000000000000000000000000000000000000000000000000000000000000000000000000000000000000000000000000000000000000000000000000000000000000000000000000000000000000000000000000000000000000000000000000000000000000000000000000000000000000000000000000000000000000000000000000000000000000000","status":"1","to":"0xf17f52151ebef6c7334fad080c5704d77216b732","transactionHash":"0xb3a565f1831e9a52000efad47769fc9225be7475987b9e9f278ee79de40af00d","transactionIndex":"0","type":"0"}
트랜잭션 2: {"blockHash":"0x894053bca21fe377a625c4b1815faf4a7979b46f3eb3cc2c2d588245feb4a2ca","blockNumber":"169","cumulativeGasUsed":"21000","from":"0x627306090abab3a6e1400e9345bc60c78a8bef57","gasUsed":"21000","effectiveGasPrice":"0","logs":[],"logsBloom":"0x00000000000000000000000000000000000000000000000000000000000000000000000000000000000000000000000000000000000000000000000000000000000000000000000000000000000000000000000000000000000000000000000000000000000000000000000000000000000000000000000000000000000000000000000000000000000000000000000000000000000000000000000000000000000000000000000000000000000000000000000000000000000000000000000000000000000000000000000000000000000000000000000000000000000000000000000000000000000000000000000000000000000000000000000000000000","status":"1","to":"0xf17f52151ebef6c7334fad080c5704d77216b732","transactionHash":"0xe00277af8dc25c6b5d43e6e1808300b7feba4501ec9563b722fd651e7dab873b","transactionIndex":"0","type":"0"}
트랜잭션 3: {"blockHash":"0x59685d75acf0d707ad538654dd7042ad378299eab220352658e27ac681f5ae58","blockNumber":"173","cumulativeGasUsed":"21000","from":"0x627306090abab3a6e1400e9345bc60c78a8bef57","gasUsed":"21000","effectiveGasPrice":"0","logs":[],"logsBloom":"0x00000000000000000000000000000000000000000000000000000000000000000000000000000000000000000000000000000000000000000000000000000000000000000000000000000000000000000000000000000000000000000000000000000000000000000000000000000000000000000000000000000000000000000000000000000000000000000000000000000000000000000000000000000000000000000000000000000000000000000000000000000000000000000000000000000000000000000000000000000000000000000000000000000000000000000000000000000000000000000000000000000000000000000000000000000000","status":"1","to":"0xf17f52151ebef6c7334fad080c5704d77216b732","transactionHash":"0x9000d0f13870a042380e0837e859c6dd1858d2464f308d34c7ea220e9637e77d","transactionIndex":"0","type":"0"}
트랜잭션 2 전송 오류: {"cause":{"code":-32000,"message":"Known transaction"},"name":"InvalidResponseError","code":101,"request":{"jsonrpc":"2.0","id":"695de9d9-5137-4467-95b7-0f008589f808","method":"eth_sendRawTransaction","params":["0xf861058082520894f17f52151ebef6c7334fad080c5704d77216b7320180820a95a0977508fae248a0aed84dad64fd94dd06651bf5828a90789ffb88fdd9184b7feca0722288b2f6a45d562aef1d13dd5040a467c8819ec26dde346cae4b2f62232452"]}}
트랜잭션 3 전송 오류: {"cause":{"code":-32000,"message":"Known transaction"},"name":"InvalidResponseError","code":101,"request":{"jsonrpc":"2.0","id":"38fdd5a3-7ffd-49b2-ba15-c98e8f0d9117","method":"eth_sendRawTransaction","params":["0xf861058082520894f17f52151ebef6c7334fad080c5704d77216b7320180820a95a0977508fae248a0aed84dad64fd94dd06651bf5828a90789ffb88fdd9184b7feca0722288b2f6a45d562aef1d13dd5040a467c8819ec26dde346cae4b2f62232452"]}}
트랜잭션 1: {"blockHash":"0x2f422968f7bc72c1f088a0e4da0fe41838d9b7712f67a870e872f6617fd83222","blockNumber":"301","cumulativeGasUsed":"21000","from":"0x627306090abab3a6e1400e9345bc60c78a8bef57","gasUsed":"21000","effectiveGasPrice":"0","logs":[],"logsBloom":"0x00000000000000000000000000000000000000000000000000000000000000000000000000000000000000000000000000000000000000000000000000000000000000000000000000000000000000000000000000000000000000000000000000000000000000000000000000000000000000000000000000000000000000000000000000000000000000000000000000000000000000000000000000000000000000000000000000000000000000000000000000000000000000000000000000000000000000000000000000000000000000000000000000000000000000000000000000000000000000000000000000000000000000000000000000000000","status":"1","to":"0xf17f52151ebef6c7334fad080c5704d77216b732","transactionHash":"0xcf9d855bee26d2eda3ef3ea5018da231ee7ce9b8733fb33ed95bfe01c7b05e96","transactionIndex":"0","type":"0"}
트랜잭션 1: {"blockHash":"0xdbf57d9ec0bbf8f9db6b5f513179dc81bbef82a38015053b7112bdb29ddafaf0","blockNumber":"409","cumulativeGasUsed":"21000","from":"0x627306090abab3a6e1400e9345bc60c78a8bef57","gasUsed":"21000","effectiveGasPrice":"0","logs":[],"logsBloom":"0x00000000000000000000000000000000000000000000000000000000000000000000000000000000000000000000000000000000000000000000000000000000000000000000000000000000000000000000000000000000000000000000000000000000000000000000000000000000000000000000000000000000000000000000000000000000000000000000000000000000000000000000000000000000000000000000000000000000000000000000000000000000000000000000000000000000000000000000000000000000000000000000000000000000000000000000000000000000000000000000000000000000000000000000000000000000","status":"1","to":"0xf17f52151ebef6c7334fad080c5704d77216b732","transactionHash":"0xa0e64cac313a06f63b663165d067c79e59ab3eab2dceef1a9c976242dfbc5e2d","transactionIndex":"0","type":"0"}
트랜잭션 2: {"blockHash":"0x0ef3d65f41c14b4fc9bb5d56180d103498c3df3705362ab296f583b63e906e7c","blockNumber":"413","cumulativeGasUsed":"21000","from":"0x627306090abab3a6e1400e9345bc60c78a8bef57","gasUsed":"21000","effectiveGasPrice":"0","logs":[],"logsBloom":"0x00000000000000000000000000000000000000000000000000000000000000000000000000000000000000000000000000000000000000000000000000000000000000000000000000000000000000000000000000000000000000000000000000000000000000000000000000000000000000000000000000000000000000000000000000000000000000000000000000000000000000000000000000000000000000000000000000000000000000000000000000000000000000000000000000000000000000000000000000000000000000000000000000000000000000000000000000000000000000000000000000000000000000000000000000000000","status":"1","to":"0xf17f52151ebef6c7334fad080c5704d77216b732","transactionHash":"0x5f10cfb3ffcc586eed31aecc9961868edada0b8aa0d85b02323434049b77580c","transactionIndex":"0","type":"0"}
트랜잭션 3: {"blockHash":"0xa80f14326ac9f0c42b2e400fbbafdb3ff71b3d5ec2b12c22d08639b4c683a060","blockNumber":"417","cumulativeGasUsed":"21000","from":"0x627306090abab3a6e1400e9345bc60c78a8bef57","gasUsed":"21000","effectiveGasPrice":"0","logs":[],"logsBloom":"0x00000000000000000000000000000000000000000000000000000000000000000000000000000000000000000000000000000000000000000000000000000000000000000000000000000000000000000000000000000000000000000000000000000000000000000000000000000000000000000000000000000000000000000000000000000000000000000000000000000000000000000000000000000000000000000000000000000000000000000000000000000000000000000000000000000000000000000000000000000000000000000000000000000000000000000000000000000000000000000000000000000000000000000000000000000000","status":"1","to":"0xf17f52151ebef6c7334fad080c5704d77216b732","transactionHash":"0x762b48877fce63486b923732a1e7265cc65ca37482229fd8a3f963ce0e054dba","transactionIndex":"0","type":"0"}
트랜잭션 1 전송 오류: {"cause":{"code":-32000,"message":"Known transaction"},"name":"InvalidResponseError","code":101,"request":{"jsonrpc":"2.0","id":"d6f8bce5-4879-416f-ac67-f81c8d31d49f","method":"eth_sendRawTransaction","params":["0xf861098082520894f17f52151ebef6c7334fad080c5704d77216b7320180820a95a09a10a5ec7a391b0811feacbd6410f8f7a9ba0a9f13700348337f4610bf30ef23a02e4fe578ae5835dc1d7b8cd88097a693008d6f20f76074e74ab6301fd79797a1"]}}
트랜잭션 2 전송 오류: {"cause":{"code":-32000,"message":"Known transaction"},"name":"InvalidResponseError","code":101,"request":{"jsonrpc":"2.0","id":"901b839e-5598-41f6-bfc3-06c3efa6a811","method":"eth_sendRawTransaction","params":["0xf861098082520894f17f52151ebef6c7334fad080c5704d77216b7320180820a95a09a10a5ec7a391b0811feacbd6410f8f7a9ba0a9f13700348337f4610bf30ef23a02e4fe578ae5835dc1d7b8cd88097a693008d6f20f76074e74ab6301fd79797a1"]}}
트랜잭션 3 전송 오류: {"cause":{"code":-32000,"message":"Known transaction"},"name":"InvalidResponseError","code":101,"request":{"jsonrpc":"2.0","id":"5442ada4-3c52-4cdc-bfb7-e4c7eb5357e9","method":"eth_sendRawTransaction","params":["0xf861098082520894f17f52151ebef6c7334fad080c5704d77216b7320180820a95a09a10a5ec7a391b0811feacbd6410f8f7a9ba0a9f13700348337f4610bf30ef23a02e4fe578ae5835dc1d7b8cd88097a693008d6f20f76074e74ab6301fd79797a1"]}}
트랜잭션 1: {"blockHash":"0xe0c97cf78d63ada67f6059bda93a0ff977da8115ea3a1e0eabc75a6f950ec8c1","blockNumber":"497","cumulativeGasUsed":"21000","from":"0x627306090abab3a6e1400e9345bc60c78a8bef57","gasUsed":"21000","effectiveGasPrice":"0","logs":[],"logsBloom":"0x00000000000000000000000000000000000000000000000000000000000000000000000000000000000000000000000000000000000000000000000000000000000000000000000000000000000000000000000000000000000000000000000000000000000000000000000000000000000000000000000000000000000000000000000000000000000000000000000000000000000000000000000000000000000000000000000000000000000000000000000000000000000000000000000000000000000000000000000000000000000000000000000000000000000000000000000000000000000000000000000000000000000000000000000000000000","status":"1","to":"0xf17f52151ebef6c7334fad080c5704d77216b732","transactionHash":"0xffdb95a2e101ede4e28b637ba67282d2957b4065c697ec468a1ac2ac995db84c","transactionIndex":"0","type":"0"}
트랜잭션 2: {"blockHash":"0xa63f19511d965db2e3b9ad8e2fb0b5b5a5681443a5da2c36d00a4a2e0261e687","blockNumber":"501","cumulativeGasUsed":"21000","from":"0x627306090abab3a6e1400e9345bc60c78a8bef57","gasUsed":"21000","effectiveGasPrice":"0","logs":[],"logsBloom":"0x00000000000000000000000000000000000000000000000000000000000000000000000000000000000000000000000000000000000000000000000000000000000000000000000000000000000000000000000000000000000000000000000000000000000000000000000000000000000000000000000000000000000000000000000000000000000000000000000000000000000000000000000000000000000000000000000000000000000000000000000000000000000000000000000000000000000000000000000000000000000000000000000000000000000000000000000000000000000000000000000000000000000000000000000000000000","status":"1","to":"0xf17f52151ebef6c7334fad080c5704d77216b732","transactionHash":"0xb960664ae476859c6b2f411d97438c5f5ccda325642bb0c8e03d005b533ed2a5","transactionIndex":"0","type":"0"}
트랜잭션 3: {"blockHash":"0xd87f49985cd43d9169dd023ca08fce9af1e4261d67a066ef9092f82fbb73c514","blockNumber":"505","cumulativeGasUsed":"21000","from":"0x627306090abab3a6e1400e9345bc60c78a8bef57","gasUsed":"21000","effectiveGasPrice":"0","logs":[],"logsBloom":"0x00000000000000000000000000000000000000000000000000000000000000000000000000000000000000000000000000000000000000000000000000000000000000000000000000000000000000000000000000000000000000000000000000000000000000000000000000000000000000000000000000000000000000000000000000000000000000000000000000000000000000000000000000000000000000000000000000000000000000000000000000000000000000000000000000000000000000000000000000000000000000000000000000000000000000000000000000000000000000000000000000000000000000000000000000000000","status":"1","to":"0xf17f52151ebef6c7334fad080c5704d77216b732","transactionHash":"0xb33b61a127c164f45af792cce60cc283cb71defaf96ce1e58654f085b99a70b8","transactionIndex":"0","type":"0"}
트랜잭션 3 전송 오류: {"cause":{"code":-32000,"message":"Transaction nonce is too distant from current sender nonce"},"name":"InvalidResponseError","code":101,"request":{"jsonrpc":"2.0","id":"3aa211cf-8d7b-4617-83d8-2587ad312423","method":"eth_sendRawTransaction","params":["0xf8610e8082520894f17f52151ebef6c7334fad080c5704d77216b7320180820a96a024c8fa570144dd4cef2b37da6b7b2af593d6f10c02b07f4cd6d12a3622285883a04267ca719d25ce17fc678952fe6b5275436b722abd1f3aea992ea92ae53201c1"]}}
트랜잭션 4 전송 오류: {"cause":{"code":-32000,"message":"Transaction nonce is too distant from current sender nonce"},"name":"InvalidResponseError","code":101,"request":{"jsonrpc":"2.0","id":"a444c6cb-b5ac-4c08-b072-2f066879cb8d","method":"eth_sendRawTransaction","params":["0xf8610f8082520894f17f52151ebef6c7334fad080c5704d77216b7320180820a95a05f1ed60ac1083c2a14197ad8d9b623e1d22a9089c740675fd86638abb8047b37a04481525ed2efc8fbdb9ddc25be8630257e1d373cbaf04fcce0e3f89112ff6a14"]}}
트랜잭션 2 전송 오류: {"cause":{"code":-32000,"message":"Transaction nonce is too distant from current sender nonce"},"name":"InvalidResponseError","code":101,"request":{"jsonrpc":"2.0","id":"f9df8856-d79c-4265-8d58-62733495078f","method":"eth_sendRawTransaction","params":["0xf8610d8082520894f17f52151ebef6c7334fad080c5704d77216b7320180820a96a073b70099887c1b8368eb5b0b498779a4e782546dce10547d986040397e3f5b9fa01c58b627d3b6948e2c6af0bd3197821b77e62326f1029426ea6e50de22a19f8f"]}}
트랜잭션 5 전송 오류: {"cause":{"code":-32000,"message":"Transaction nonce is too distant from current sender nonce"},"name":"InvalidResponseError","code":101,"request":{"jsonrpc":"2.0","id":"34a3d783-8cc0-48c5-ab5f-58d1067a4144","method":"eth_sendRawTransaction","params":["0xf861108082520894f17f52151ebef6c7334fad080c5704d77216b7320180820a96a0f890fb7048a55e043413ba07ded86efb2b199f5832428d76cbf44c4627bfb3d4a04639a9efd4dfc621cf17ba81e707adbf7c18e1ef2493f85d80a832f3645b96b0"]}}
트랜잭션 1: {"blockHash":"0xc4f3a9e7eb0f706b4d3487001c1b34c971b7705e73d59238d802378f836e6d4a","blockNumber":"585","cumulativeGasUsed":"21000","from":"0x627306090abab3a6e1400e9345bc60c78a8bef57","gasUsed":"21000","effectiveGasPrice":"0","logs":[],"logsBloom":"0x00000000000000000000000000000000000000000000000000000000000000000000000000000000000000000000000000000000000000000000000000000000000000000000000000000000000000000000000000000000000000000000000000000000000000000000000000000000000000000000000000000000000000000000000000000000000000000000000000000000000000000000000000000000000000000000000000000000000000000000000000000000000000000000000000000000000000000000000000000000000000000000000000000000000000000000000000000000000000000000000000000000000000000000000000000000","status":"1","to":"0xf17f52151ebef6c7334fad080c5704d77216b732","transactionHash":"0xf3caefb072e4ea7686bc10b691dc3b2883deb0e403344766af50b5149be4f05a","transactionIndex":"0","type":"0"}
트랜잭션 1: {"blockHash":"0x2bae88737bbb684f8a747e789628ffd7222bff34ff9eddca69ce04647bd9fb3f","blockNumber":"677","cumulativeGasUsed":"21000","from":"0x627306090abab3a6e1400e9345bc60c78a8bef57","gasUsed":"21000","effectiveGasPrice":"0","logs":[],"logsBloom":"0x00000000000000000000000000000000000000000000000000000000000000000000000000000000000000000000000000000000000000000000000000000000000000000000000000000000000000000000000000000000000000000000000000000000000000000000000000000000000000000000000000000000000000000000000000000000000000000000000000000000000000000000000000000000000000000000000000000000000000000000000000000000000000000000000000000000000000000000000000000000000000000000000000000000000000000000000000000000000000000000000000000000000000000000000000000000","status":"1","to":"0xf17f52151ebef6c7334fad080c5704d77216b732","transactionHash":"0xfdec9dd053b6e101fd81a0011720576a6ca11dbed1cecc4528dbb69770c3d91c","transactionIndex":"0","type":"0"}
트랜잭션 2: {"blockHash":"0x290dcddc998072d9edabf74ccee99657cb307de730e32f7f4369d1f3f92279e8","blockNumber":"681","cumulativeGasUsed":"21000","from":"0x627306090abab3a6e1400e9345bc60c78a8bef57","gasUsed":"21000","effectiveGasPrice":"0","logs":[],"logsBloom":"0x00000000000000000000000000000000000000000000000000000000000000000000000000000000000000000000000000000000000000000000000000000000000000000000000000000000000000000000000000000000000000000000000000000000000000000000000000000000000000000000000000000000000000000000000000000000000000000000000000000000000000000000000000000000000000000000000000000000000000000000000000000000000000000000000000000000000000000000000000000000000000000000000000000000000000000000000000000000000000000000000000000000000000000000000000000000","status":"1","to":"0xf17f52151ebef6c7334fad080c5704d77216b732","transactionHash":"0x153e9db8cdc31ad42ecf1a67aa070cbb5f30f8d3d2dc2dd71950078d409515fe","transactionIndex":"0","type":"0"}
트랜잭션 3: {"blockHash":"0x629761e96f198e2b8ce11c0d654af09de8486f48ce585418f8a0fb019bf80390","blockNumber":"685","cumulativeGasUsed":"21000","from":"0x627306090abab3a6e1400e9345bc60c78a8bef57","gasUsed":"21000","effectiveGasPrice":"0","logs":[],"logsBloom":"0x00000000000000000000000000000000000000000000000000000000000000000000000000000000000000000000000000000000000000000000000000000000000000000000000000000000000000000000000000000000000000000000000000000000000000000000000000000000000000000000000000000000000000000000000000000000000000000000000000000000000000000000000000000000000000000000000000000000000000000000000000000000000000000000000000000000000000000000000000000000000000000000000000000000000000000000000000000000000000000000000000000000000000000000000000000000","status":"1","to":"0xf17f52151ebef6c7334fad080c5704d77216b732","transactionHash":"0x815730ce6544084e439d599e7e837fc18aaa20379008fc2a2623078024dfbf14","transactionIndex":"0","type":"0"}
트랜잭션 4: {"blockHash":"0xc3213594809172fe4854970e7b6a4fee3df8d2b2b96601ed2a1c598fc70cecbf","blockNumber":"689","cumulativeGasUsed":"21000","from":"0x627306090abab3a6e1400e9345bc60c78a8bef57","gasUsed":"21000","effectiveGasPrice":"0","logs":[],"logsBloom":"0x00000000000000000000000000000000000000000000000000000000000000000000000000000000000000000000000000000000000000000000000000000000000000000000000000000000000000000000000000000000000000000000000000000000000000000000000000000000000000000000000000000000000000000000000000000000000000000000000000000000000000000000000000000000000000000000000000000000000000000000000000000000000000000000000000000000000000000000000000000000000000000000000000000000000000000000000000000000000000000000000000000000000000000000000000000000","status":"1","to":"0xf17f52151ebef6c7334fad080c5704d77216b732","transactionHash":"0xfdaf2022649be8ce21d03db4aac08c2503afef86cd90ae5eaaebce1a246c4568","transactionIndex":"0","type":"0"}
트랜잭션 5: {"blockHash":"0x3632081a0356a647a5c37ac3df1cc5767f99a8a5fd3b4644504e224f0408167d","blockNumber":"693","cumulativeGasUsed":"21000","from":"0x627306090abab3a6e1400e9345bc60c78a8bef57","gasUsed":"21000","effectiveGasPrice":"0","logs":[],"logsBloom":"0x00000000000000000000000000000000000000000000000000000000000000000000000000000000000000000000000000000000000000000000000000000000000000000000000000000000000000000000000000000000000000000000000000000000000000000000000000000000000000000000000000000000000000000000000000000000000000000000000000000000000000000000000000000000000000000000000000000000000000000000000000000000000000000000000000000000000000000000000000000000000000000000000000000000000000000000000000000000000000000000000000000000000000000000000000000000","status":"1","to":"0xf17f52151ebef6c7334fad080c5704d77216b732","transactionHash":"0x4a3d8dce058de323bbdd5150bbde0407f9058184eaa7a22aebcf4fdfbf805d79","transactionIndex":"0","type":"0"}
트랜잭션 2 전송 오류: {"cause":{"code":-32000,"message":"Transaction nonce is too distant from current sender nonce"},"name":"InvalidResponseError","code":101,"request":{"jsonrpc":"2.0","id":"2b5f1be7-6a67-418e-a98c-66fc2d8d9183","method":"eth_sendRawTransaction","params":["0xf861138082520894f17f52151ebef6c7334fad080c5704d77216b7320180820a96a0c363d1f3b7eb4c07b07980d622b4d0af0614fc31eea64c2e17abbf597d4c0253a03652acf0b490d798615f6c23d94464cbdfc26ef59b0b7c1d8699afa18594d2f0"]}}
트랜잭션 3 전송 오류: {"cause":{"code":-32000,"message":"Transaction nonce is too distant from current sender nonce"},"name":"InvalidResponseError","code":101,"request":{"jsonrpc":"2.0","id":"4a2d18cd-834c-4181-867c-3c0d80ce6f28","method":"eth_sendRawTransaction","params":["0xf861148082520894f17f52151ebef6c7334fad080c5704d77216b7320180820a95a0388c90ac0d9d4557e81e17f3f58952f2e40cbfcb4cf1bc8334ca6caf4f032425a00e3962bc6f88e9a04d8ed743e62ef72f2a11e56959404ab27bb6906fc599b10b"]}}
트랜잭션 4 전송 오류: {"cause":{"code":-32000,"message":"Transaction nonce is too distant from current sender nonce"},"name":"InvalidResponseError","code":101,"request":{"jsonrpc":"2.0","id":"8fa07dba-6fbd-44f5-bf60-1bb1c3de90d6","method":"eth_sendRawTransaction","params":["0xf861158082520894f17f52151ebef6c7334fad080c5704d77216b7320180820a96a00cce69e314b26ad704d85e644b94cad7c015cc31a531fef128c49eb111556f2aa01083b875dc7eb9352b4109a02f7eb31c6362b9203e6dbbab3b2d322508eb26c8"]}}
트랜잭션 5 전송 오류: {"cause":{"code":-32000,"message":"Transaction nonce is too distant from current sender nonce"},"name":"InvalidResponseError","code":101,"request":{"jsonrpc":"2.0","id":"7d97f142-d32b-4fb6-b70c-62556b724584","method":"eth_sendRawTransaction","params":["0xf861168082520894f17f52151ebef6c7334fad080c5704d77216b7320180820a95a092c440c906d755b7d4c009691227f02521d929e5594cc92d53448166e0d6c310a0148809dbf7783c40211b9eeb9ea84d7ed9ccc2767178ee0c3c80657f2f9dda30"]}}
트랜잭션 1: {"blockHash":"0xcd9f79db46873abac62889907bb93906ca6b71945fceb86873de95c8a4711e8b","blockNumber":"901","cumulativeGasUsed":"21000","from":"0x627306090abab3a6e1400e9345bc60c78a8bef57","gasUsed":"21000","effectiveGasPrice":"0","logs":[],"logsBloom":"0x00000000000000000000000000000000000000000000000000000000000000000000000000000000000000000000000000000000000000000000000000000000000000000000000000000000000000000000000000000000000000000000000000000000000000000000000000000000000000000000000000000000000000000000000000000000000000000000000000000000000000000000000000000000000000000000000000000000000000000000000000000000000000000000000000000000000000000000000000000000000000000000000000000000000000000000000000000000000000000000000000000000000000000000000000000000","status":"1","to":"0xf17f52151ebef6c7334fad080c5704d77216b732","transactionHash":"0xedbb2b8b48e32e9477e08f25bd63a662c95f595d7e6c87f0c5328ca46aad5329","transactionIndex":"0","type":"0"}
